:020000040800F2
:1000000028110020014E0008454E0008494E000806
:100010004D4E0008514E0008554E000800000000EB
:10002000000000000000000000000000594E000821
:100030005D4E000800000000614E0008654E00089B
:10004000694E00086D4E0008714E0008754E00089C
:10005000794E00087D4E0008814E0008854E00084C
:10006000894E00088D4E0008914E0008954E0008FC
:10007000994E00089D4E0008A14E0008A54E0008AC
:10008000A94E0008AD4E0008B14E0008B54E00085C
:10009000B94E0008BD4E0008C14E0008C54E00080C
:1000A000C94E00085B3D0008D14E0008D54E00083F
:1000B000D3320008054D0008DD200008E54E000899
:1000C000E94E0008414E0008434E0008894C0008E4
:1000D000F94E00083D3C0008014F0008054F00089C
:1000E000094F00080D4F0008114F00082DE9F0439B
:1000F0009FB00FF6B036269CDFF81C898DF83B4088
:10010000029100240B944FF0FF37044691461D46A0
:100110000AE019F8011B0298A0470028029000F09D
:10012000A1800B98401C0B9099F8000050B1252835
:10013000EFD10021002205910692079108920991C2
:100140000A9203E00B98A0E041F0010119F8010FB9
:100150002028F9D023280CD02B2804D02D2805D016
:10016000302809D080E041F00201EFE741F00401BE
:10017000ECE741F00801E9E741F01001E6E70D92F4
:100180000AE00D98404505DA00EB800002EB4002E2
:10019000303A0D9209F1010999F80020A2F13000DE
:1001A0000A28EED399F800002E2818BF0C9726D104
:1001B00019F8010F2A2808D12868286009F10109D7
:1001C00050F8042B28600C9219E02D280CBF09F17F
:1001D0000109002000220C920BE040B90C9A424524
:1001E00005DA02EB820203EB4203303B0C9309F188
:1001F000010999F80030A3F130020A2AEDD3ADF8D5
:100200003810304699F8001000F0BCFD08B119F81C
:10021000010B8DF83A009DF83A00682805D199F84D
:10022000000068280CD1622106E06C2804BF99F810
:1002300000006C2804D171218DF83A1009F10109F0
:1002400010A804902A4619F8013B6946204600F0A0
:100250005CF838B910AA6946204600F088F90028F1
:100260007FF562AF384610E02A2888D12A682A60D4
:1002700052F8040B2A6000280D9003D540420D90DF
:1002800041F0040109F101098CE71FB0BDE8F083DA
:10029000622820D0682811D06A2803D06C2827D083
:1002A000712825D10868C01D20F007000860D0E93A
:1002B000002308300860194610467047002A0A6873
:1002C0000A60106803D0121D0A6000B217E0121D08
:1002D0000A6080B217E0002A0A680A60106803D03A
:1002E000121D0A6040B20AE0121D0A60C0B20AE0A4
:1002F000002A0A680A60106803D0121D0A60C1173C
:100300007047121D0A600021704770B51C460D46EB
:10031000B4F125002E69114600F01781203802281B
:1003200065D9133841D00B3816D0401E1ED0401E60
:1003300002285CD9001F19D0401F00F08380401EA6
:1003400033D0401E00F0CD80C01E00F0DC80801E47
:100350002BD0C01E29D0FEE06869421C6A610A6881
:100360000A6052F8043B0A603354FEE095F83A0004
:100370000122FFF78DFFC5E900010023994204DA4D
:100380006869411C69612D220DE0288F810704D521
:100390006869411C69612B2205E0C00722D56869A4
:1003A000411C6961202232541CE095F83A00002279
:1003B000FFF76EFFC5E9000195F83800010711D578
:1003C000D5E900230020834208BF82420AD044F0CE
:1003D0002000782806D1686930213154401C421C25
:1003E0006A613454214668693044E86087E00868EF
:1003F000C01D20F007000860D0E900230830086025
:10040000C5E90023D5E90001C80F04D06869411C83
:1004100069612D220DE0288F810704D56869411C90
:1004200069612B2205E0C00704D56869411C696138
:100430002022325468693044E8602146284600F0A2
:10044000C8F992E005F13A02507820B14FF0FF343C
:100450000FF6580062E01078622808D0682824D08F
:100460006A2812D06C282ED071280ED02BE00A6892
:100470000A6052F8040B0A6020B94FF0FF340FF6FF
:1004800044004BE0E96A01706FE00A680A6052F8C4
:10049000040B0A6020B94FF0FF340FF628003DE04E
:1004A000EA6AD317C0E900235FE00A680A6052F8DD
:1004B000040B0A6020B94FF0FF340FF608002DE05E
:1004C000E96A018051E00A680A6052F8040B0A6088
:1004D00020B94FF0FF340FF2EC701FE0E96A0160C1
:1004E00043E00A680A6052F8040B0A60002120F019
:1004F000000221F0FF33C5E90023EE607821284691
:1005000000F0BBF831E00868086050F8044B086060
:10051000EC603CB94FF0FF340FF2C07000F05AFCB1
:10052000201A70BD2E6B002E04D5204600F072FC00
:10053000044608E032460021204600F08BFC0028EB
:1005400014BF041B3446AC610FE06869411C69614B
:100550002522325409E06969481C686125227254D9
:10056000210002D0431C6B613454002070BD2DE982
:10057000FC410F46064690467A6B7869396ABC6A38
:10058000121AB869521A796A121AF869521A121AAA
:1005900097F83800141B41070FD42020002C8DF849
:1005A00000000ADD254601236A463946304600F040
:1005B00061FB00285DD16D1EF5D17B69424639464D
:1005C000304600F057FB002853D130208DF8000052
:1005D0003D6A002D09DD01236A463946304600F0A8
:1005E00049FB002845D16D1EF5D1BB69FA68394633
:1005F000304600F03FFB00283BD130208DF8000052
:100600007D6A002D08DD01236A463946304600F038
:1006100031FB70BB6D1EF6D1F868B969FB694218F1
:100620003946304600F026FB18BB30208DF800001C
:10063000BD6A002D08DD01236A463946304600F0C8
:1006400019FBB0B96D1EF6D197F8380041070DD5EA
:100650002020002C8DF8000008DD01236A46394671
:10066000304600F007FB20B9641EF6D10020BDE83B
:10067000F6814FF0FF30BDE8F6812DE9FC470746D3
:100680008C463E69BCF16F0F08BF082405D04CF0C2
:100690002000782814BF0A2410243C25D7E9002321
:1006A000BCF1640F18BFBCF1690F9046994606D1A2
:1006B00000218B4203DAD8F1000869EB49094FF0B9
:1006C000000AD14508BFD0451FD1386BE8B9082CC6
:1006D0004BD197F83800010747D530203B2586F8E5
:1006E0003B0042E000280ED597F8380000F01400D7
:1006F000102808D17B6B7969386A5B1A1B1A9A1A21
:10070000002AC8BF3A62BDE8F3878DF800C04046B2
:1007100049462246E31700F0C9FB3032D0B26D1EC5
:100720003A28019504DB9DF80000A0F151018A18D8
:100730007255404649462246E31700F0B7FB89460A
:100740008046D14508BFD04503D0F868711988426A
:10075000DDD3082C09D197F83800010705D5705D65
:10076000302802D06D1E30207055C5F13C02BA61B0
:100770007119F960386B8242B4DA821A3A624FF624
:10078000EF70398F01403987BDE8F3872DE9D043F9
:1007900006460F4614464FF00008DFF8809212E03C
:1007A000E00707D542464B463046394600F096FCF6
:1007B00006460F464046494642464B4600F08EFCF0
:1007C000641080468946002CEAD130463946BDE89F
:1007D000D0832DE9F84F05468CB0286BD5E9008908
:1007E00000288B4602AC02D50620286305E001BF35
:1007F0004BF02000672801212963D5E900A670008D
:100800004015401C0DD131030BD0ABF16101032029
:100810001A29A86102D20FF2E04110E00FF2DC4188
:100820000DE071004915491C0ED130030CD1ABF11C
:10083000610103201A29A86116D30FF2C841E868A4
:10084000032200F01DFDE3E026F00043B3F5801F16
:100850002AF0000211D20027BB4208BFBA4201971A
:1008600005D15046314618E00FF29441E7E701AA5E
:100870005046314600F058FD08E06948694900EBF0
:10088000135001900E40684950463143019B674F19
:1008900047F29752534393FBF7F7C5E90001D5E9B7
:1008A000000620F0000226F000430020834204BF2F
:1008B0008242002300F0A4804046494600220023E3
:1008C00000F06AFD38BF89F000493A46D2F10702CC
:1008D000019703DD4946FFF759FF0AE05242002025
:1008E0005349FFF753FF02460B464046494600F086
:1008F0006BFD80464BF02006662E286B06BF019CE0
:100900000A3406242418142CC8BF14243020894625
:100910008DF808000DF10907002C33DD40464946EB
:1009200000F076FE01460A4607F1080304200A2774
:10093000B2FBF7F707EB870EA2EB4E02303203F85B
:10094000012C0A22B7FBF2F202EB820EA7EB4E0754
:100950003037401E03F8027DE9D1083C002C03F13A
:100960000807D9DD084600F067FE02460B46404600
:10097000494600F06FFE00222E4B00F0AFFB804690
:100980008946CBE70DF109003F1A0DF1090404E097
:100990000198401E7F1E0190641C20783028F7D0FB
:1009A000662E02D10198401C03E0652E0CBF012089
:1009B00000202B6BC3189F42B8BF7B1E002B1ED498
:1009C000BB4204DAE05C3528A8BF392000DA3020C9
:1009D0001946621E02EB010800E05B1E18F801993F
:1009E000491E8145F9D0392802D1605C401C605411
:1009F000002904D50198401C14465B1C0190019805
:100A000000B200901BB222465946284600F014F866
:100A10000DB0BDE8F08F0000CBCCCC0C0000244022
:100A200002FCFFFFFFFF0F800000E03FA0860100F7
:100A30000000F03F84D797412DE9FC43054683B081
:100A40001F462E6B002F904602DC01270FF2B828BC
:100A5000894649F02000BDF93040662808BF641C73
:100A600013D0672840F08D8014F1040F78DBB44276
:100A700076DA95F83800641C010702D4B742B8BF93
:100A80003E4620B2361A48BF00260FFA84F9E868BD
:100A9000A969B9F1000F23DC4A1C30234354002E0E
:100AA00003DC95F83800010703D5E9682E20885447
:100AB000521C16EB090FB8BF744224B26042686240
:100AC000A619BE42AA61B8BF3746EB68A8693FB213
:100AD000EF613A464146184400F0D2FBF61B19E09C
:100AE00022B29742084417DA3A46414600F0C8FB62
:100AF000A8693818A9EB0707002EA8616F6203DC0C
:100B000095F838100A0705D5EA682E211154E869CE
:100B1000401CE861AE6296E0414600F0B1FBA86976
:100B20003F1B002E484403DC95F838100A0703D514
:100B3000EA682E211154401CA86138B28642EB6845
:100B4000A869B8BF37463AB208EB0901184400F06B
:100B500097FBA9693FB27918F71BA9616F6272E030
:100B6000B74204DA95F838100A0758BF3E46761E99
:100B700048BF0026B9F1670F0CBF4FF065094FF071
:100B80004509A969EB68481CA861002E18F8012BDB
:100B90005A5403DC95F838100A0719D5EA68431C43
:100BA000AB612E211154002E12DD7F1E38B2864219
:100BB000D5F80CC0B8BF37463AB241460CEB03003B
:100BC00000F05EFBA8693FB23818F61BA8616E62A0
:100BD000E868A9690844002C80F8009003D42B220F
:100BE0004270811C03E02D2141706442811C002071
:100BF0006A460AE023460A2493FBF4F404EB8406D5
:100C0000A3EB460302F8013B401C24B2002CF1DCAC
:100C1000012806DC49F02002652A04BF302201F8D1
:100C2000012B48B9302001F8010B07E0401E1DF8E8
:100C30000030303301F8013B0028F7DCEA68A8698E
:100C40001044091AE96195F8380000F014001028E2
:100C50000DD16A69A969686A8A18E9698218A86A5F
:100C60008A188218686B8242BCBF821A2A6205B059
:100C7000BDE8F083F8B505460E4617461C46002031
:100C800074B117F8011BB068A847B06030B1F06AC2
:100C9000401CF0620020641EF3D1F2BD4FF0FF3023
:100CA000F2BD0000686A6C747A4C00007072696E64
:100CB00074665F733A20256E20646973616C6C6F93
:100CC000776564007072696E74663A2062616420B0
:100CD000256E20617267756D656E74007072696E45
:100CE00074665F733A2062616420257320617267C5
:100CF000756D656E740000006E616E004E414E00B1
:100D0000696E6600494E46003000F0B40246106835
:100D100095681318506803EB5004C0071DD54D4467
:100D20001BE013F8017B05F8017B491EF9D1A0B146
:100D3000B60813F8011B06F00306032E08BF13F8CC
:100D4000016B01EB06214942801C294405D011F8B2
:100D5000016B05F8016B401EF9D1A3420ED013F8C8
:100D6000016B16F0030104BF13F8011BC91C300905
:100D70000F28DAD113F8010B0F30D6E7F0BC02F1DF
:100D80000C0070470278C9B28A421AB11CBF10F831
:100D9000012FF9E718BF0020704730B4002513E099
:100DA00050F8042BD30744BFA9F101039A18091F77
:100DB000042942F8045BFAD213468C0744BF15801D
:100DC0009B1CC90748BF1D7050F8041B0029E7D1C0
:100DD00030BC704780B500B906A005490B681BB14F
:100DE00022220021984701E000F0A5FC222002BD4C
:100DF000EC080020636F6E73747261696E74206812
:100E0000616E646C65723A20626164206D65737313
:100E10006167650000F10103810704D010F8011B30
:100E2000820781B1FAD10268A2F10131914311F038
:100E3000803104BF50F8042FF6E709BAB1FA81F106
:100E400000EBD100401CC01A70470268531C0360BD
:100E500011707047C9B2830706D0521E22D310F812
:100E6000013B9942F7D11FE0083A13D302F1040283
:100E700041EA012141EA014150F8043B121F21BF20
:100E80004B40A3F1013C2CEA030C1CF0803FF3D053
:100E9000C9B2001F083210F8013B521E28BF91EA68
:100EA000030FF8D818BF0120401E7047BBBBE1B14B
:100EB000B2F5803F80F07E80022A1ED98C46B1FBBD
:100EC000F2F102FB11C31B0443EA1043B3FBF2FC33
:100ED00002FB1C3380B240EA0343B3FBF2F002FB97
:100EE000103240EA0C4000237047022A05D984469C
:100EF000B0FBF2F002FB10C270474AB105D100F01E
:100F0000010249085FEA3000704700220023704761
:100F100000F014BC0B00020000210020704790423A
:100F200071EB030CF6D3B3F5803F2FD2F0B5B3FAD3
:100F300083F7B1FA81F4A7F10F0E3D1B5340CEF1B8
:100F4000200602FA0EF2F3415340B5F10F0746D8DE
:100F50000F3C2C444140C4F12006A040F1414140E7
:100F6000B1FBF3F603FB1611A2FB0645001BA941DA
:100F700002D2761E8018594180EA010221FA0EF34E
:100F800062FA0EF200215A403046F0BD30B4B1FB97
:100F9000F3FC03FB1C11A2FB0C45001BA94103D26F
:100FA000ACF1010C8018594130BC02460B4660463A
:100FB00000217047B2F1807F65D3F0B5B2FA82F7B5
:100FC000B1FA81F4C7F10F063D1B22FA06F307F1CF
:100FD000110EF24120355A40B5F10F07B8D9414002
:100FE000C4F12006A040F1414140B1FBF3FC03FBFA
:100FF0001C11A2FB0C45001BA94103D2BCF1010C42
:10100000801859410F2F12D30F3FC90341EA5041B5
:10101000B1FBF3F603FB1611A2FB0645D4EBC0307F
:10102000A94102D2761E8018594146EACC3C07B34A
:101030004140C7F12006B840F1414140B1FBF3F611
:1010400003FB1611A2FB0645001BA94102D2761E26
:101050008018594180EA010221FA0EF3C7F12004F9
:1010600062FA0EF20CFA07F05A402CFA04F13043FF
:10107000F0BD80EA010221FA0EF3002162FA0EF2BD
:1010800060465A40F0BD8C46B1FBF2F102FB11C341
:101090001B0243EA1063B3FBF2FC02FB1C331B028E
:1010A0004CEA002043EA1063B3FBF2FC02FB1C3362
:1010B0001B024CEA002043EA1063B3FBF2FC02FB84
:1010C0001C331B024CEA002043EA1063B3FBF2FC22
:1010D00002FB1C324CEA002000237047B0B581EAC5
:1010E000030C0CF0004C40F2FF7515EA11541DBFC3
:1010F00015EA1357AC42AF4239E0E41923EA4553ED
:1011000043F48013C90241F0004141EA505EC70236
:101110001100A7FB020200284FF00000EEFB0120A7
:101120004FF00001E3FB072118BF42F00102401815
:1011300000214941E3FB0E01A4F580640F0302D2B4
:1011400052004041494154F101046CDD470872F1FD
:10115000004250F1000051EB0451A1F580115CBF39
:1011600041EA0C01B0BD4CEA05510020B0BD05EAD2
:101170001357AC4214BFAF4241E050EA410E1CBFCE
:1011800052EA430E02E061460020B0BD24423C44D6
:101190001BD15FEA070EF6D0090302BF014600200B
:1011A000AEF1140EB1FA81F7AEEB070401FA07FEB7
:1011B0000C37C7F1200100FA07F7C8404EEA000ECD
:1011C00023EA455343F48013A2E733F00043B3FA14
:1011D00083F704BFB2FA82FE77440B3FE41BB7F1FA
:1011E000200E2FBF02FA0EF3BB40C7F1200E22FAE9
:1011F0000EFE38BF43EA0E03BA40641C82E750EA91
:10120000410E14BF52EA430E6FF000014FF4001775
:1012100017EB430F8ABF194617EB410FB5E74CEAAE
:1012200005510020B0BDD4F10104B4F120070FDA5C
:10123000C4F12007520828BF42F0010210FA07F556
:1012400001FA07F7E1BF2A43E0403843E1400FE0ED
:10125000352C98DCC7F1200452EA400220FA07F24C
:1012600018BF42F0010231FA07F0A1400A43002101
:1012700072F1004250F1000051EB0C01B0BD0000D2
:1012800062B38B0708D0521E11F8013B00F8013BF6
:1012900000F024808B07F6D1830740F0208000BF48
:1012A000103A07D330B4B1E83810103AA0E838103B
:1012B000F9D230BC530724BFB1E80810A0E80810E9
:1012C00044BF51F8043B40F8043BD20724BF31F837
:1012D000022B20F8022B44BF0B7803707047121FBB
:1012E00017D35B0009D151F8043B20F8023B1B0CDB
:1012F000121F20F8023BF6D20BE051F8043B00F835
:10130000013B1B0A20F8023B1B0C121F00F8013B9B
:10131000F3D238BF121D521E24BF11F8013B00F852
:10132000013BF8D87047000010B5144600F002F8F1
:10133000226010BDC1F30A5343B14A0012F5001FE9
:1013400028D2A3F2FE32A1EB0251704750EA410CC1
:1013500020D001F0004C31EA0C01B1FA81F204BF57
:10136000B0FA80F3D2180B3AB2F120032CBF00FA86
:1013700003F1914041EA0C013EBFC2F1200C20FA7A
:101380000CF319439040524240F2FD33D21A01EB64
:1013900003517047002270474FF4001C1CEB410FB3
:1013A00094BF1CEB430F09E041EA030C50EA4C0CDC
:1013B00052EA0C0C03D2994208BF9042704714BF06
:1013C0008B42824270470000F0B540F2FF7581EA1F
:1013D000030C0CF0004C15EA11541DBF15EA13570D
:1013E000AC42AF42E5E0BC41C1F31301C3F31303C8
:1013F000801A994143F4801304D2641E400049418D
:1014000080185941C90241EA5051B1FBF3F603FB80
:101410001611A2FB0675D7EBC020A94102D2761E99
:1014200080185941C90241EA5051B1FBF3FE03FB58
:101430001E11A2FB0E75D7EBC020A94103D2AEF15D
:10144000010E80185941890241EA9051760546EA19
:101450008E2EB1FBF3F603FB1611A2FB0675D7EB3C
:101460008020A94102D2761E80185941C90241EA62
:1014700050514EEA060EB1FBF3F603FB1611A2FB28
:101480000675D7EBC020A94102D2761E80185941BB
:10149000C90241EA5051B1FBF3F703FB1711A2FB5C
:1014A0000735D3EBC020A94167F100070CBF00420C
:1014B00047F0010766F3D5274FEA1E31B80814F547
:1014C000806412DDBD0775F1004250EB0E5051EB08
:1014D000045111F5801F5CBF41EA0C01F0BD4CF0D6
:1014E0007F6141F0E0410020F0BDBD076D0840EA9A
:1014F0000E5041F48011D4F10104B4F120060ADA4F
:10150000C4F120060200E04001FA06F3E14018436E
:10151000B24015430EE0342C13DCC6F1200445EA3A
:1015200040056D0820FA06F2154321FA06F0A140A5
:101530000D43002175F1004250F1000051EB0C0108
:10154000F0BD00205FEA0C01F0BDCFB992185B41FD
:10155000B3FA83F704BFB2FA82F6BF190B3FB7F1B3
:1015600020062FBF02FA06F3BB40C7F1200622FA7D
:1015700006F638BF3343BA401CB1E419641E33E7A2
:101580007F4231F00041B1FA81F404BFB0FA80F635
:10159000A4190B3CB4F120062FBF00FA06F1A140BC
:1015A000C4F1200620FA06F638BF3143A0403C1BA8
:1015B0001AE7AC421ABF05EA1357AF4212E050EAED
:1015C00041061CBF52EA4306BFE750EA41073046D6
:1015D00061461CBF41EA0551F0BD52EA430C08BF09
:1015E000C143F0BD00204FF4001616EB410F98BF29
:1015F00016EB430F08BF16EB410F24BFC14305E0B4
:1016000016EB430F0CBF61464CEA0551F0BD0000DC
:10161000400D491840EA81200CD2490DA1F58061A6
:10162000491C40F0004005DBD1F11F0154BFC84008
:10163000C017704700207047014648B1B0FA80F1EA
:101640008840C91CC1F58461090501EBD021400522
:101650007047000070B44FF0004591EA030F40F16D
:1016600077806B40841A71EB030603D2001BB141F3
:10167000121973414FF4001C1CEB410F34BF7CEB7B
:10168000430442E00C0DA4EB1356352E4FDC45EA23
:10169000C323DB0A45EAC121C912B6F120050DDDDD
:1016A00063FA05F6EB4086EA0305124218BF45F0DF
:1016B0000105C01851F100010CD213E062FA06F5E1
:1016C000F2405540F3415A40B340F3405A4080182D
:1016D000594107D349085FEA30005FEA350528BF62
:1016E00045F0010501F58011420875F1004250F105
:1016F000000041EB04514E0016F5001F70BC38BFCE
:1017000070470020090D090570471CEB410F10D2EE
:1017100052EA43060BD0BCEB410F05D80C0DAB438E
:10172000661E342EB6DD02E0AB438018594170BC12
:10173000704770BC7047012000F0C0B870470000CF
:1017400070B44FF0004591EA030F7FF58BAF6B400B
:10175000841A71EB030604D26E40001BB1411219CA
:1017600073414FF4001C1CEB410F34BF7CEB43066C
:1017700083E00C0DA4EB1356362E00F37C80012E73
:1017800045EAC32341DC43EA525312BFD20292021C
:101790005B08240545EAC12141EA5051D2EBC02043
:1017A000994125D407D1B0FA80F610FA06F162D03B
:1017B0000020203608E0B1FA81F6B140C6F12002DF
:1017C00020FA02F21143B0404FEAF474B4EB4654ED
:1017D00034F001064FEA74040AD8D6F50016760DE7
:1017E00004F00044F04061FA06F25040F1404840F5
:1017F000C00A40EA415021F0004128BF5FEA50058D
:1018000050F1000044EBD12135E0DB0A45EAC1216B
:10181000C90AB6F120050EDD42EA0242120CC5F1FA
:10182000200603FA06F6EB4042EA06056D429841AF
:1018300061F100010DE062FA06F5F240554063FAED
:1018400006FC82EA0C02F3405A406D42904161EB83
:10185000030111F4801F05D1641E620502D06D00E2
:101860004041494121F48011430875F1004350F192
:10187000000041EB045170BC70471CEB410F15D2C6
:1018800023F0004352EA43060BD04FEA4C0CBCEB6A
:10189000410F04D80C0D661E342EB7DDEBE7801A1D
:1018A000994150EA410608BF0021E4E708BF1CEB5C
:1018B000430F28BF6FF00001DDE70000202109037E
:1018C00026311820ABBEF9E7010049B200290AD43D
:1018D000012210F01F018A40DFF8E41903005BB217
:1018E0005B0941F8232070470021DFF8D80902681E
:1018F000120401D451F001010268520401D451F0E4
:101900000201DFF8C4291268D20501D451F00401A4
:101910000268920401D451F008010068C00401D4A7
:1019200051F010010800C0B200280AD001280AD0E6
:1019300002280AD004280AD008280AD010280AD081
:101940000BE000200AE0012008E0022006E003206E
:1019500004E0042002E0052000E00F20704710B4EE
:1019600001000020DFF8642913780C00E4B2A342E0
:1019700009D011F00F031370002210000022DFF8CD
:1019800050391A600DE0DFF848391C68292C01D362
:10199000127810001A6841F289339A4201D350F04C
:1019A0001000C0B210BC704780B50020DFF82419C9
:1019B0000860DFF82409018851F008010180012046
:1019C00000F015F801BD0100C9B200290AD0DFF806
:1019D0000C19098889B2022291FBF2F1DFF8002983
:1019E000118003E00021DFF8F82811807047010022
:1019F000C9B200290CD0DFF8EC180988DFF8E82814
:101A00001180DFF8D4180A8852F040020A8003E0FF
:101A10000021DFF8D42811807047F8B588B0DFF8CE
:101A2000CC08016851F008010160DFF8C448206863
:101A300050F001002060DFF8BC5829004FF400404E
:101A400000F0CDFC29004FF4804000F0C8FCDFF826
:101A5000A86831004FF4807000F0C1FC29004FF4F9
:101A6000005000F0BCFC29004FF4805000F0B7FC9F
:101A7000DFF888184FF4005000F0B1FC4FF400601C
:101A8000ADF8000018208DF8030003208DF8020047
:101A90006946280000F0E0FCDFF86478386850F40C
:101AA000407038604FF40040ADF8000069463000E7
:101AB00000F0D2FC386850F0007038604FF480605D
:101AC000ADF800006946280000F0C6FC01A800F04F
:101AD00057FE05A800F048FE4FF43470ADF814002E
:101AE0000020ADF81A006420ADF818000020ADF811
:101AF000160005A95FF0804000F024FD6020ADF8DD
:101B000004000120ADF806000020ADF80C00002014
:101B1000ADF80A0001A95FF0804000F0E6FD00206A
:101B2000ADF80A0001A95FF0804000F050FD01A966
:101B30005FF0804000F095FD01215FF0804000F0F3
:101B40003FFE01215FF0804000F02BFE206850F046
:101B500004002060DFF8AC47042020800020DFF87C
:101B6000A81708800020DFF8A41708804820DFF8B5
:101B7000A01708806420DFF89C1708800020DFF899
:101B800098170880DFF89407018851F0010101805F
:101B90001E20FFF799FE0120DFF8841708802088B7
:101BA00050F00100208009B0F0BD10B500F0DEFE5D
:101BB000DFF87047002001F0E8F82060012001F014
:101BC000E4F8DFF8641708802068DFF86017086021
:101BD000DFF85C07DFF85C17226851F8221001601B
:101BE0000168DFF854271160006800F029FF10BD7C
:101BF000F8B5002401F07FF8002827D0DFF824573B
:101C0000002001F0C2F828602868DFF8201708607B
:101C1000DFF81C07DFF81C172A6851F82210016052
:101C20000168DFF814271160006800F009FF012047
:101C300001F0ABF8DFF8F0160880022001F0A5F8FB
:101C4000DFF8A016088001F052F846E2DFF8EC0653
:101C50000068800400F12A82DFF87C5628780006AC
:101C600006D40120FFF7C3FE288850F080002880AA
:101C7000FFF73AFEC0B2FFF772FE0400DFF8C006BD
:101C800001782200D2B2914204D00470288850F02A
:101C9000040028802000C0B200281ED001282AD0CD
:101CA000022800F0D980032800F08781042800F082
:101CB000AF81052800F0D2810F280FD0112875D0F0
:101CC000122800F02481132800F0A181142800F0CC
:101CD000C481152800F0E981FFE1FEE12878400782
:101CE00008D5288850F02000288029884FF6FB70FE
:101CF00001402980F1E12878400756D52878C007AF
:101D000043D50020DFF83C1608700020DFF83816B5
:101D1000087029884FF6FE7001402980DFF80C66B4
:101D20003068B22825D20020DFF8A815086028887E
:101D300050F0080028800120FFF759FE3068401C51
:101D40003060DFF8F405DFF8EC15326851F8221046
:101D50000160298851F0020129800021DFF8EC257B
:101D60001160006800F06CFE288850F001002880A7
:101D700016E00020DFF85C150860288850F010009D
:101D800028800120FFF733FE0AE00020DFF8441529
:101D90000860288850F0080028800120FFF727FEFF
:101DA00029884FF6FB700140298096E1DFF8940501
:101DB0000178032906DADFF89815096840F6C5129C
:101DC00091420AD20178491C042944DBDFF88015CE
:101DD000096840F2E93291423DD30178491C017013
:101DE0000020DFF86C150860DFF8E8640020306040
:101DF0000120FFF7FCFDDFF834050168B2291AD293
:101E00000168491C0160DFF83015DFF828250068FB
:101E100052F820000860288850F002002880002036
:101E2000DFF828251060086800F00AFE288850F0C6
:101E3000010028800FE0DFF81075387800280AD1FB
:101E400000203060288850F0100028800120FFF723
:101E5000CEFD0120387040E12878400756D528781B
:101E6000C00743D50020DFF8DC1408700020DFF83D
:101E7000D814087029884FF6FE7001402980DFF8D9
:101E8000AC643068002825D00020DFF848140860D2
:101E9000288850F0080028800120FFF7A8FD30684E
:101EA000401E3060DFF89004DFF88814326851F883
:101EB00022100160298851F0020129800021DFF8F9
:101EC0008C241160006800F0BBFD288850F00100F0
:101ED000288016E00020DFF8FC130860288850F006
:101EE000100028800120FFF782FD0AE00020DFF8C3
:101EF000E4130860288850F0080028800120FFF7CC
:101F000076FD29884FF6FB7001402980E5E0DFF877
:101F100034040178032906DADFF83414096840F63E
:101F2000C51291420AD20178491C042944DBDFF82A
:101F30002014096840F2E93291423DD30178491CEE
:101F400001700020DFF808140860DFF888630020C3
:101F500030600120FFF74BFDDFF8D0130868002840
:101F60001AD00868401E0860DFF8CC03DFF8C423ED
:101F7000096852F821100160298851F00201298076
:101F80000021DFF8C8231160006800F059FD28889F
:101F900050F0010028800FE0DFF8AC73387800289B
:101FA0000AD100203060288850F0100028800120DD
:101FB000FFF71DFD012038708FE02878400725D5F8
:101FC000FFF7F2FC29884FF6FF600140298028883E
:101FD00090F00100288029884FF6FB70014029808D
:101FE0000020DFF8681308602878C0070ED4DFF8F7
:101FF00034030068DFF834130860DFF83403016845
:10200000DFF834231160006800F01AFD65E064E039
:102010002878400720D5FFF7C7FC29884FF6FF60D6
:1020200001402980288890F00100288029884FF6F7
:10203000FB70014029800020C44908602878C0074F
:102040000AD4B8480068B9490860B9480168BA4A72
:102050001160006800F0F4FC3FE03EE028784007A3
:1020600022D5FFF7A1FCAF49B048006808602A8874
:102070004FF6FE7002402A80AD4EAE480A6850F816
:1020800022003060AC4800683060096889B20020E6
:1020900000F063FE00F02BFE306800F0D1FC2988D0
:1020A0004FF6FB700140298017E016E08A49087856
:1020B000000612D50A884FF67E7002400A809948C1
:1020C00000689A4908609A4801689B4A1160006854
:1020D00000F0B6FC0020FFF78AFCF1BD2DE9F041CD
:1020E00000F0B1FF8C4C2088C00740F1E58072B64B
:1020F00077480168491C016095480168491C0160E6
:10210000754D2878400607D529884FF6BF700140E5
:10211000298000208F4908608E480168491C0160B1
:1021200000688D49884202D30020FFF760FC874891
:102130000168491C016000688849884212D32878E8
:10214000C0070FD529884FF6FE70014029807548D9
:1021500000687649086076480168774A116000682F
:1021600000F06EFC7E4E3068401C30602878C0075E
:1021700010D5306842F6E16188420BD32888C0054B
:1021800008D5784800F026FC288890F480702880D4
:10219000002030602878C00711D5306841F64171C1
:1021A00088420CD32888C00509D46348006800F031
:1021B00047FC288890F480702880002030602878C0
:1021C000000713D50120684908700020674908708E
:1021D00029884FF6F7700140298000206449086083
:1021E0000020644908700120FFF7EDFB2878C00645
:1021F00013D502205C49087000205C4908702988CA
:102200004FF6EF70014029800020594908600020F6
:10221000584908700120FFF7D6FB2878800613D5AF
:1022200003205149087000205049087029884FF652
:10223000DF700140298000204D49086000204D4991
:1022400008700120FFF7BFFB484D474E28783178D2
:1022500088422ED2464F3868401C3860DFF814811F
:1022600098F8000000280CD1386840F2E931884223
:1022700007D3012088F800000020FFF7A4FB00200E
:10228000386098F80000002813D0386840F2E9312F
:1022900088420ED3002088F800000020386028789B
:1022A000401C287028783178884202D20120FFF73C
:1022B0008AFB00F0E3FA62B600202080BDE8F081DE
:1022C00000E100E0080C0140080801400A09002074
:1022D000BC080020C8080020F208002024000040AC
:1022E00040000040000300203C0000401810024065
:1022F0001C100240000C0140000801400010014089
:102300000400014000080040040800402408004088
:10231000280800402C080040100800400C0800402D
:1023200014080040E008002034000040E4080020C9
:10233000D8080020A4480008DC080020081001404C
:10234000090900200E0900200F090020C408002000
:10235000C0080020D0080020804F1200A186010094
:10236000D4080020DC4D00080C0900200B090020D7
:10237000CC0800200D09002038B504000D003148BC
:10238000854205D13048016851F00401016019E02F
:102390002E48854205D12C48016851F008010160A2
:1023A00010E02B48854205D12748016851F0100103
:1023B000016007E02748854204D12348016851F0B5
:1023C0002001016003208DF80200ADF800401020CC
:1023D0008DF803006946280000F03EF831BD38B59D
:1023E00004000D001748854205D11748016851F0D7
:1023F0000401016019E01548854205D112480168C1
:1024000051F00801016010E01148854205D10E48E5
:10241000016851F01001016007E00E48854204D1C7
:102420000948016851F02001016003208DF8020085
:10243000ADF8004028208DF803006946280000F020
:102440000BF831BD0008014018100240000C01409B
:102450000010014000140140F0B5002200230024C8
:1024600000250026002791F803C01CF00F0C91F8FE
:1024700003E05FEACE6E02D58A7852EA0C0C0A7845
:1024800012062AD00268160000221400082C23D25B
:102490005FF0010E1EFA04F215000A882A401300AC
:1024A000AB4217D1A20015000F22AA401700BE436D
:1024B0001CFA05F21643CA78282A04D11EFA04FE33
:1024C000C0F814E006E0CA78482A03D11EFA04FED8
:1024D000C0F810E0641CD9E706600A88B2F5807F76
:1024E0002EDB4268160000221400082C27D25FF071
:1024F000010E14F108021EFA02F215000A882A40A1
:102500001300AB4219D1A20015000F22AA401700F8
:10251000BE431CFA05F21643CA78282A04D114F1E6
:1025200008021EFA02F24261CA78482A05D114F163
:1025300008021EFA02FEC0F810E0641CD5E74660EF
:10254000F0BD000010B400220488834B98420FD0E5
:10255000DFF8982290420BD0B0F1804F08D07F4A2C
:10256000904205D07E4A904202D07E4A904204D1E9
:102570004FF68F7214404A881443DFF86822904265
:1025800008D0DFF86422904204D04FF6FF42144096
:10259000CA88144304808A8882850A880285984202
:1025A0000FD0DFF8482290420BD0DFF8442290424F
:1025B00007D0DFF84022904203D0DFF83C2290425F
:1025C00001D10A7A02860122828210BC7047F0B4DF
:1025D000002600275FF0000C038C4FF6FE721340BC
:1025E0000384058C8388048B4FF68F7214404FF65A
:1025F000FC7214400A8814434FF6FD7215400A8994
:1026000015434A881543544A90420FD0DFF8DC2125
:1026100090420BD0DFF8D821904207D0DFF8D421C8
:10262000904203D0DFF8D021904213D14FF6F772D9
:1026300015404A8915434FF6FB7215408A881543A9
:102640004FF6FF6213404FF6FF5213408A8913433F
:10265000CA89134383800483CA8882860584F0BCB8
:102660007047F0B4002600275FF0000C038C4FF693
:10267000FF6213400384038C8488858B4FF68F722E
:1026800015404FF6FC7215400A8815434FF6FF526D
:1026900013400A8953EA02234A8853EA02232E4A46
:1026A000904203D0DFF85421904217D14FF2FF72CD
:1026B00013404A8953EA02234FF6FF3213408A88B7
:1026C00053EA02234EF6FF7214404DF6FF72144097
:1026D0008A8954EA0214CA8954EA021484808583E0
:1026E000CA8882870384F0BC7047F0B400230024BA
:1026F0000025068C4EF6FF7216400684B0F820C006
:102700008688878B48F6FF7217404FF6FF421740C6
:102710000A8857EA02274DF6FF7212EA0C0C0A8962
:102720005CEA023C4A885CEA023C0B4A904203D0D5
:10273000DFF8C820904205D14BF6FF7216408A8917
:1027400056EA821686808783CA88A0F84020A0F8BF
:1027500020C0F0BC70470000002C01400004004085
:1027600000080040000C00404FF6FF7181800021FE
:1027700001800021C1800021418000210172704749
:102780000021018000214180002181800021C18041
:102790000021018100214181002181810021C1812D
:1027A00070470A00D2B2002A04D0028852F0010217
:1027B000028004E003884FF6FE72134003807047E6
:1027C0000A00D2B2002A06D0B0F8442052F40042E7
:1027D000A0F8442005E0B0F844205204520CA0F8C0
:1027E00044207047001000400014004000340140B5
:1027F00000400140004401400048014000340140D5
:10280000DFF8EC02202101800C214180042181802D
:102810000121C18002210181018851F01001018054
:10282000018851F008010180704730B4DFF8C422FC
:10283000136853F004031360002213000C009BB2D2
:10284000A4B2A3420BD213009BB230F81330DFF8CE
:10285000A0421500ADB224F81530521CEDE7DFF8A8
:10286000983219800023DFF894422380DFF89032F9
:102870001C7854F003041C7030BC704710B4DFF8AF
:1028800080020178090711D5DFF878120A68022A58
:102890000CD3DFF86022136853F00403136002784E
:1028A00012F0F70202700020086054E00178490736
:1028B0000BD5DFF850120A68022A06D3027812F00C
:1028C000FB0202700020086045E0017811F005016C
:1028D000012938D1DFF82412DFF814320A8833F8DE
:1028E0001220D20506D5DFF82022146854F0020425
:1028F000146005E0DFF8FC21146854F00204146051
:102900000A8833F81220DFF804321B681A70DFF8E7
:10291000F821136853F004031360027852F00C029C
:1029200002700022DFF8DC311A600A88724B1B88C3
:102930009A4203D20888401C08800CE0017811F00C
:10294000FE01017007E0017811F0090F03D1017851
:1029500011F0FD0101706B480168491C016010BC59
:1029600070476748007810F00200704780B56849EA
:10297000FF20FFF701FD67490720FFF7FDFC5D48D9
:10298000016851F002010160016851F0010101602C
:10299000016851F004010160642000F03FFBFFF783
:1029A0002FFF05215248FFF740FF00205A490880B9
:1029B000002000F005F8FFF7D4FF0028FBD101BD8F
:1029C00010B50400220092B203215FF0804000F0B5
:1029D00043FB10BD70B40023002100250022474CAA
:1029E00022803022444C22800122414E0224348035
:1029F0000024082C08D2435C53F4807326F812306C
:102A0000521C491C641CF4E70023202B05D214241B
:102A100026F81240521C5B1CF7E70724102C08D242
:102A2000435C53F4807326F81230521C491C641C1A
:102A3000F4E7334B1D7855F003051D7070BC7047EB
:102A4000F8B586B00400002000256946334AD2E973
:102A50000036C1E900360026102E04D2202002A93B
:102A60008855761CF8E720005FF07E5100F008FBE7
:102A70000ED2200000F016FB02000B002849684629
:102A800000F034FB68460179C1702021017117E024
:102A9000200000F007FB02000B002249684600F00E
:102AA00025FB00200600052E0AD26846815D3029EC
:102AB00002DB815D3A2901DB20218155761CF2E79A
:102AC00002A84E21C1703D2141710027052F06D279
:102AD000F91D0D006946C95D41557F1CF6E72520AB
:102AE0008DF8140002A8FFF775FF07B0F0BD0000D5
:102AF00010080020140C0140F6080020F408002003
:102B000010090020E8080020100C014000000020FF
:102B100000080140000C0140F80800201C4E00088D
:102B2000244E00082C4E000810B50400A4B2610029
:102B300089B2002000F070FB10BD38B500240120E0
:102B4000FFF7F2FF092802D0012004001AE0002557
:102B50000A2D09DA681C80B2FFF7E6FFDFF8A0143F
:102B600021F815006D1CF3E70A21DFF8940400F04A
:102B70007BFB05000020FFF7D7FFADB2854201D0F7
:102B8000022004002000C0B232BD38B586B06C46C9
:102B9000092060800025122D25DA022D07DB032D88
:102BA00005DADFF85C0430F8150024F815000A2D6A
:102BB0000ADB102D08DADFF8480430F81500694602
:102BC00001EB450121F80E0C102D08DBDFF8300475
:102BD00030F81500694601EB450121F80E0C00F0B4
:102BE00032FA6D1CD7E70A210DF1020000F03CFB20
:102BF000ADF800000B226946002000F0F8FA07B09B
:102C000030BD10B500F0E8FA00F01DFA00F06FF8E2
:102C1000FFF793FF002803D100F050FB002830D1CC
:102C20000024122C2BDA032C09DA002C07D4DFF84D
:102C3000D40330F81400DFF8C81321F81400102C66
:102C40000BDA092C09DBDFF8C00300EB440030F895
:102C5000120CDFF8AC1321F81400122C0BDA102C34
:102C600009DBDFF8A80300EB440030F8200CDFF8A4
:102C7000901321F8140000F0E6F9641CD1E7FFF787
:102C800084FF00F0E0F90024122C2DDA022C0ADB7C
:102C9000032C08DA200080B2FFF746FFDFF860134C
:102CA00021F814001EE00A2C0BDB102C09DA20009E
:102CB000C01F80B2FFF738FFDFF8441321F814007B
:102CC00010E0102C09DB2000C01F80B2FFF72CFFA2
:102CD000DFF82C1321F8140004E00020DFF82013A3
:102CE00021F81400641CCFE700F0ADF910BD0020FE
:102CF000C74908807047C64800887047F8B5040087
:102D00000D00160000210800320080B292B29042FD
:102D100014D2BB4A23009BB2080080B2C31808003B
:102D200080B215F810000F00BFB205EB47077F789F
:102D300057EA002722F81370491CE4E700F083F9F2
:102D4000210089B2300080B24118032901DBFFF76E
:102D50001CFF601CAE490880F1BD38B504000D00B1
:102D6000A748210089B220F81150200080B2032822
:102D700001DBFFF70AFF601CA549088031BDA049AF
:102D800080B201EB4000808970479D4980B231F8E4
:102D9000100070479A4980B201EB4000008C7047E8
:102DA00038B504000D009648210089B200EB4100BF
:102DB0000584FFF7EAFE31BD2DE9F0475FF0000C16
:102DC0008646944B0600B6B2F6101E4417001EF05D
:102DD00007031D003B009BB2082B33DB4FF0FF08BD
:102DE0006346DBB216F80390D5F1080A434653FA5E
:102DF0000AF313EA09096346DBB2CB5CAB4053EA42
:102E000009096346DBB206F803906346DBB233443C
:102E100093F801906B1C18FA03F818EA0908634646
:102E2000DBB2CB5CD5F1080953FA09F353EA080881
:102E30006346DBB2334483F801801CF1010C1EF1C0
:102E4000080E5DE02B00DBB2D3F10803B8461FFA91
:102E500088F8434534DA4FF0FF086346DBB216F8D2
:102E60000390D5F1080A434653FA0AF313EA090915
:102E70006346DBB2CB5CAB4053EA09096346DBB285
:102E800006F803906346DBB233445B78B946B9F188
:102E9000080915EB090918FA09F818EA0308634646
:102EA000DBB2CB5CD7F1080915EB090953FA09F33A
:102EB00053EA08086346DBB2334483F801801FE01D
:102EC000FF2317EB050813FA08F8D5F1080953FAA0
:102ED00009F353EA08031C006346DBB2F35C2340AA
:102EE000E0465FFA88F811F8088018FA05F838EA21
:102EF000040858EA0303E0465FFA88F806F8083049
:102F0000083F64E72DE9F04105000C004148290025
:102F100089B2C91000EB010615F00707FF2017F171
:102F2000010810FA08F8D7F10801084150EA08082A
:102F3000200080B2002804D0307870EA0800307099
:102F400003E0307818EA0000307000F07CF82800C8
:102F500080B2000980B2012801DBFFF716FEBDE850
:102F6000F0812DE9F84F04000D0016001F005FF0FE
:102F70000008A1463900C9B2002904D0012904D1B2
:102F80002549080001E023490800210089B2C91041
:102F900000EB010AB346584680B200282CD019F045
:102FA00007008DF800004046C0B21AF800009DF8F6
:102FB000001008414146C9B2514449789DF80020AB
:102FC000D2F10802914008434146C9B2685418F151
:102FD000010819F10809584680B2082809DA404664
:102FE000C0B2285CFF2151FA0BF108404146C9B23A
:102FF0006854BBF1080BCEE700F025F8BDE8F18F6F
:1030000070080020344E0008F04D00083C4E0008C7
:10301000FC080020820800207608002010B586B049
:10302000040001A800F098F902980949B0FBF1F0FA
:10303000604300900098002803D00098401E009044
:10304000F8E706B010BD4AF6AA20024908607047AA
:10305000A0860100003000400B00DBB2012B06D03F
:103060000DD3032B07D004D3042B06D007E08286B0
:1030700005E0028703E0828701E0A0F84020704766
:103080004FF0807C1CEB400F94BF1CEB410F05E020
:1030900040EA010C1CEB0C0F01D28842704718BFAC
:1030A00081427047C0F3C75181B1FF2906D0C110DA
:1030B000400721F0E04101F16051704741020CBF2F
:1030C00040F4E0016FF000410020704700F0004143
:1030D00000020AD0B0FA80FC00FA0CF001F1605155
:1030E000A1EB0C5101EBD021400570470CB430B579
:1030F00083B00A4606A90291044600250194009572
:1031000002AB01A9084878441E30FCF7EFFF019A92
:10311000157000284EBF04460198041B204603B0DA
:1031200030BC5DF80CFB00BF23DDFFFFF0B40400F2
:10313000E4B24FF480635C4314F10064434B444DAC
:103140001D60444D1D60444B1D68ED07FBD41D6898
:10315000AD0601D520251D60404D2E6856F00206B3
:103160002E603F4E34602E6856F040062E601E687A
:10317000B606FCD520261E602E6836F002062E60AC
:103180001E68F607FCD41E68B60601D520261E6010
:103190002E6856F001062E6000261700BFB2BE4210
:1031A00010D201EB06077F7811F806C01CEB072C44
:1031B0003719A7F800C01F68BF06FCD520271F607D
:1031C000B61CEAE72B685B085B002B602B6853F0AA
:1031D00080032B60F0BC70470020042806D210F159
:1031E0003B01204A42F82010401CF6E7704770B5BA
:1031F00004000D0016002000C0B2052801DB0020ED
:1032000009E0B6B2720092B2290014F13B00C0B2DC
:10321000FFF78CFF012070BD38B504000D002000C1
:10322000C0B2052801DB00200DE02000C0B24FF441
:103230008062290089B202FB001000F1006010F5E5
:103240006C40006880B280B232BD000004200240B1
:1032500023016745AB89EFCD0C20024010200240CE
:1032600014200240980800202DE9F04180460F000C
:10327000FF252C0000263800471E80B2002811D000
:10328000FFF7E1FE2900C9B298F8000041400E00A6
:1032900018F101080748805D604005000648805D20
:1032A0000400E8E7E4B2EDB255EA0425280080B254
:1032B000BDE8F081B8000020B801002000211248CC
:1032C0000068C043C0F3C300C0B270470F48007825
:1032D000704738B5FFF7B7FE0D4C2088C00710D5F2
:1032E00072B60C4D2878411C2970C0B2052805D152
:1032F000FFF7E4FF0549087000202870FEF778FC0E
:1033000062B60020208031BD080C0140030300207C
:103310001000004020090020DFF83011086850F04C
:1033200001000860DFF828211368DFF82801034056
:1033300013600B68DFF8200103400B60086830F46D
:1033400080200860106830F4FE0010605FF41F00F9
:10335000DFF80811086070472DE9F04F01000022E6
:103360000025002000263A4FD7F800C01CF00C0CB6
:103370006346002B04D0042B05D0082B06D023E095
:10338000374A0A6022E0364A0A601FE03A6812F4BF
:1033900070123B6813F480331800920C921C1500D5
:1033A000002804D12F4A02FB05F20A600BE03A68BC
:1033B000920304D52B4A02FB05F20A6003E0284A77
:1033C00002FB05F20A6001E0254A0A603C6814F03D
:1033D000F0042409DFF8909019F804E00A6832FA42
:1033E0000EF24A603B6813F4E0631B0A19F803808D
:1033F0004A6832FA08F28A603A6812F46052D20AD5
:1034000019F80290D1F804A03AFA09FAC1F80CA010
:103410003F6817F44047BF0BDFF850A01AF807A029
:10342000D1F80CB0BBFBFAFBC1F810B0BDE8F08FCF
:103430000A00D2B2002A04D00D4A13680343136075
:1034400003E00B4A13688343136070470010024087
:10345000041002400000FFF8FFFFF6FE08100240D3
:1034600000127A0000093D00B8020020C8020020C6
:10347000181002402DE9F84304000D005FF0000829
:10348000607894F8029059EA0029484680B20328EF
:103490002ADA2878072824D1E078217951EA002116
:1034A0000E006079A17951EA00210F00484680B2F0
:1034B000FFF76BFC304037EA06010843ADF8000027
:1034C000BDF8000080B2BDF80010090251EA1021D9
:1034D000ADF8001001226946484680B2FFF70EFCA5
:1034E00004E00320804601E0022080464046C0B24E
:1034F000BDE8F283F8B504000D0000272878052800
:1035000012D16078A17851EA00210E00300080B21B
:10351000032806DA0122E11C300080B2FFF7EEFB3F
:1035200004E00220070001E0032007003800C0B2D9
:10353000F2BD2DE9F84304000D005FF00009287882
:10354000062839DB6078A17851EA00210E00E07886
:10355000217951EA00210F00390089B2300080B290
:103560004118042925DA60798046380080B20028A5
:103570001CD0380080B2792818DA4046390089B268
:103580004900C0B2C9B2884210D14046C0B202213F
:1035900090FBF1F0020092B2A11D300080B2FFF763
:1035A000ADFBFFF750FD0520287007E003208146A2
:1035B00004E00220814601E0032081464846C0B273
:1035C000BDE8F2832DE9F04706000F005FF0000A26
:1035D0005FF000085FF00009387805284DD1707859
:1035E000B17851EA00218A46F078317951EA002118
:1035F0008846414689B2504680B24118042939DADA
:10360000404680B2002832D0404680B27C282EDA74
:10361000300003210170401C4146C9B249000170CD
:10362000401C0400002005002800C0B2414680B2C2
:1036300089B2884215D22800C0B21AEB000080B2CD
:10364000FFF7A3FB80B2000A2070641C2800C0B200
:103650001AEB000080B2FFF798FB2070641C6D1C11
:10366000E2E7404680B24000801C387007E003204B
:10367000814604E00220814601E00320814648465D
:10368000C0B2BDE8F0872DE9F04704000D005FF0FF
:1036900000092878052852D16078A17851EA0021E4
:1036A0008A46E078217951EA00210E00504680B226
:1036B000032841DA310089B2504680B2411804290A
:1036C0003ADA300080B2002833D0300080B27C2853
:1036D0002FDA200004210170401C3100C9B24900DA
:1036E0000170401C0700002080464046C0B23100F7
:1036F00080B289B2884216D24046C0B21AEB0000AE
:1037000080B2FFF73CFB80B2000A38707F1C404655
:10371000C0B21AEB000080B2FFF731FB38707F1C9B
:1037200018F10108E1E7300080B24000801C2870E9
:1037300007E00320814604E00220814601E00320E7
:1037400081464846C0B2BDE8F0872DE9F843040041
:103750000D005FF00009287805284ED16078A17827
:1037600051EA00210E00E078217951EA00210F0092
:10377000300080B230283DDA390089B2300080B2A2
:103780004118312936DA380080B200282FD03800AD
:1037900080B240F2B171884229DA20000221017022
:1037A000401C390011F0070F0DD0390089B2C9084B
:1037B000491C017010F10108380080B2C008401C9B
:1037C000801C28700AE0390089B2C908017010F124
:1037D0000108380080B2C008801C287001233A001C
:1037E00092B24146300080B2FFF7BBFB07E00320F6
:1037F000814604E00220814601E0032081464846DC
:10380000C0B2BDE8F2832DE9F84304000D005FF07B
:103810000009287805284ED16078A17851EA002166
:103820000E00E078217951EA00210F00300080B2CB
:1038300070283DDA390089B2300080B24118712910
:1038400036DA380080B200282FD0380080B240F23B
:10385000B171884229DA200001210170401C390031
:1038600011F0070F0DD0390089B2C908491C017049
:1038700010F10108380080B2C008401C801C28707C
:103880000AE0390089B2C908017010F10108380056
:1038900080B2C008801C287000233A0092B24146D2
:1038A000300080B2FFF75DFB07E00320814604E0B3
:1038B0000220814601E0032081464846C0B2BDE8AF
:1038C000F2832DE9F04104000D000027E07894F820
:1038D000048058EA0028287805281BD1404680B289
:1038E000002804D0404680B2B0F57F4F12D16078F6
:1038F000A17851EA00210E00300080B2702806DA6B
:10390000414689B2300080B2FFF7FCFA04E00220A1
:10391000070001E0032007003800C0B2BDE8F081D5
:103920002DE9F84304000D0000200027E17894F809
:10393000048058EA0128C1461FFA89F95FEAD909CB
:10394000414611F0070F01D019F101092878062826
:103950002EDB404680B200282AD0404680B240F29A
:10396000B171884224DA6079494680B289B28842CE
:103970001ED16078A17851EA00210E00300080B29B
:10398000702812DA414689B2300080B2411871299C
:103990000BDA424692B2A11D300080B2FFF70CFA5A
:1039A000FFF751FB0520287004E00220070001E02A
:1039B000032007003800C0B2BDE8F283F8B5040068
:1039C0000D00FF2600206178A77857EA012739000B
:1039D00089B2002902D001290FD01DE0E07807004C
:1039E000380080B20C2805DA390089B20020FFF7D0
:1039F000D7F901E00320060010E0E0780700380066
:103A000080B2032805DA390089B20120FFF7C8F92E
:103A100001E00320060001E0012006003000C0B2F2
:103A2000F2BD0000010049B200290AD4012210F0C1
:103A30001F018A40DFF8B81303005BB25B0941F84D
:103A40002320704710B4020052B2002A06D40A01A3
:103A5000DFF8A033040064B21A5509E00A01DFF868
:103A60009833040064B214F00F04234403F8042CC8
:103A700010BC7047DFF88C03008880B270471FB518
:103A800001214FF48040FFF7D3FC0020FFF782F9BB
:103A9000DFF8741380B251F8200000900120FFF786
:103AA00079F9002803D0022818D00BD321E0002098
:103AB000ADF804004FF40050ADF806000020ADF85A
:103AC000080016E04FF48050ADF804000020ADF877
:103AD00006004FF48060ADF808000AE04FF4805013
:103AE000ADF804000020ADF806004FF4C060ADF85A
:103AF00008000020ADF80C000C20ADF80A00DFF83B
:103B00000C436946200000F0A3F90121200000F0D9
:103B10000DFADFF8FC02016851F020010160DFF8C6
:103B2000F402018851F02001018000212520FFF7D7
:103B300089FF2520FFF776FFFFF785FA0020DFF8E1
:103B4000D81208700020B0F5827F05DA5521DFF821
:103B5000CC221154401CF6E70020DFF8A8120880A0
:103B60000020DFF8BC1208800020DFF8B8120880BF
:103B70000020DFF88C1208700020DFF88012087037
:103B80001FBD10B50400FFF75EFA72B69B480178BE
:103B9000002913D0012930D1A2480188491C018095
:103BA000A5489E4902888C540188491C0180012245
:103BB00040F22661954800F0C8F91EE09C490A6869
:103BC00052F020020A60012101700020974908800C
:103BD00094480188491C01800020974908802000F2
:103BE000C0B2944908808B49088850F04000088092
:103BF0000A884FF6DF7002400A8062B610BD8A481C
:103C0000704770B504000D0000263000290080B216
:103C100089B2884205D22078FFF7B3FF641C761C76
:103C2000F3E770BD0020854908808548018851F080
:103C300001010180002078490870704738B5FFF70E
:103C400002FA72B6714C40F225552900200000F0AE
:103C5000B8F9012842D12900200000F0E7F92088B6
:103C600010F00F0F37D16648017800292DD00129B7
:103C700009D0022914D0032922D005292ED10020F1
:103C80005E4908702AE0022101706A48008866498E
:103C9000087001205B4908800120614908801DE00F
:103CA00058480188491C01805D4801884A1C0280EF
:103CB000604800885C4A89B25054FFF7B3FF0DE0BA
:103CC00060480178491C017008E0200000F075F997
:103CD000FFF7A8FF02E0200000F06FF940F2266530
:103CE0002900200000F06DF9012834D129002000BE
:103CF00000F09CF941490878002802D0012804D03E
:103D000029E001203E49087025E0464A1088401EFF
:103D100010801088002809D0444840490288895CF6
:103D2000444A11800188491C018014E00020108061
:103D3000042008703648016851F0200101603549BF
:103D40000A884FF6BF7002400A80088850F02000B1
:103D50000880FFF767FF62B631BD70B500243A49AD
:103D60000A884FF6FE7002400A8072B6FFF76BF9C0
:103D7000294D2878401C2870287807282ED1204EFD
:103D80003078002808D002280BD0032810D004284F
:103D900003D007280DD00CE00BE01C4800F00DF913
:103DA00007E02A480078401EC0B200F053F900E056
:103DB000FFE7012030702000C0B200280ED10020A3
:103DC0000E4908701E490A884FF6FE7002400A80AC
:103DD00000201A49088000201C49087062B6287823
:103DE000032803D119480178491C017070BD0000F7
:103DF00000E100E000E400E018ED00E01B09002015
:103E00001C09002006090020D002002000380140D3
:103E1000140C01400C3801401F0900200C05002043
:103E2000FE080020040900200804002002090020E8
:103E3000100C01400438014000090020242C0140EE
:103E4000002C01401D090020102C01401E090020FB
:103E50002DE9F84F86B004000D00002600275FF022
:103E600000085FF000095FF0000AA8890028A34657
:103E7000218A4CF6FF700140E888014300910098C8
:103E80002082A1894EF6F3100140AA8828890243B6
:103E900068890243114300910098A081A18A4FF6DE
:103EA000FF400140A889014300910098A08201A829
:103EB000FFF752FA1C48834501D1049900E00399A9
:103EC000A089000407D5192000FB01F02A685200E0
:103ED000B0FBF2F206E0192000FB01F02A68920024
:103EE000B0FBF2F26420B2FBF0F6360133001B099E
:103EF000642000FB1323A089000408D5D8003230C9
:103F00006427B0FBF7F010F00700064307E0180144
:103F100032306427B0FBF7F010F00F000643268123
:103F200007B0BDE8F08F0000003801400A00D2B2AF
:103F3000002A04D0828952F40052828104E08389ED
:103F40004DF6FF721340838170472DE9F041002345
:103F5000002500275FF0000E0C0040F66A16A4B2A0
:103F6000B44280460C00E4B26409E4B20E00B6B27A
:103F700016F01F065FF0010C1CFA06FC012C02D1A2
:103F800018F10C0806E0022C02D118F1100801E02B
:103F900018F114081300DBB2002B06D0D8F800305B
:103FA0005CEA0303C8F8003005E0D8F8003033EAD3
:103FB0000C03C8F80030BDE8F0818088C005C00D52
:103FC0007047F0B4040000270020002200260B00F8
:103FD00040F66A159BB2AB420D00EDB26D09EDB231
:103FE0000B009BB213F01F035FF0010C1CFA03F3EC
:103FF000012D02D1A089034006E0022D02D1208AC2
:10400000034001E0A08A03400A0092B2120A92B271
:104010001CFA02F220880240002B03D0002A01D0B3
:10402000012000E00020C0B2F0BC704770B4002254
:1040300000240B0040F66A159BB2AB420B009BB20A
:104040001B0A01259D402E00B6B2F643068070BCC7
:10405000704700002DE9F04107005FF000080025DF
:10406000FEF7F1FFFFF706FD06003800C0B200289A
:1040700033D1300080B204282FDBFFF7C0FD0400ED
:10408000300080B2204410F8010C310089B2214484
:1040900011F8021C51EA00210D00B11E89B2200066
:1040A000FFF7E2F8290089B2884216D100203100DA
:1040B00089B2891E884204DA215C494A1154401CA5
:1040C000F5E70120474908703000801E4649087016
:1040D00046484178491C417003E044480178491C36
:1040E0000170BDE8F0812DE9F04104000D001600DB
:1040F0000027FEF7A8FFDFF8EC8098F80000002802
:1041000028D0FFF7E3F836490A78C0B2824202D0DD
:10411000087800281BD134480078401E3070087899
:10412000207000203278904205DA01EB00025278CC
:104130002A54401CF6E72D498878401C8870207866
:10414000002802D1C878401CC87001200700002058
:1041500088F800003800C0B2BDE8F0812DE9F843CE
:1041600004000D001600224F20783870DFF884809C
:104170003078401CA8F8000001200100C9B2B8F84E
:10418000002089B2914209D20100C9B2294411F834
:10419000011C0200D2B2B954401CEEE7B8F800107E
:1041A0003800FFF761F88146B8F8000007F8009082
:1041B000B8F80000401CA8F80000484680B2000A89
:1041C000B8F800107854B8F80000401CA8F80000B7
:1041D000B8F800103800FFF714FDBDE8F1830000C7
:1041E000040300201809002017090020B40800204B
:1041F00010070020FA080020010049B200290AD463
:10420000012210F01F018A40DFF8001303005BB2A7
:104210005B0941F82320704710B4020052B2002A13
:1042200006D40A01DFF8E832040064B21A5509E046
:104230000A01DFF8E032040064B214F00F042344F2
:1042400003F8042C10BC7047E0B5FFF765F80020B8
:10425000019000200090DFF8C012086850F4803010
:104260000860086810F4003000900198401C01902C
:104270000098002803D10198B0F5A06FF1D108682B
:10428000800302D50120009001E0002000900098FA
:10429000012832D1DFF88402026852F01002026075
:1042A0000268920892000260026852F00202026004
:1042B0009B480268026002680260026852F48062F1
:1042C0000260026832F47C120260026852F4E81262
:1042D00002600A6852F080720A600A689201FCD596
:1042E0000168890889000160016851F002010160DC
:1042F000016811F00C010829FAD100980EBD80B5B3
:1043000072B68848016851F000710160FFF79CFFA8
:1043100000F010F8FEF775FC00F06FF800F0C0F840
:10432000FFF7ADFBFDF779FB62B600F02FF9FDF763
:104330003CFC01BD1CB501210420FFF779F80121E7
:104340000820FFF775F801211020FFF771F801210F
:104350000120FFF76DF84020ADF8000003208DF834
:10436000020018208DF803006F4C69462000FEF70C
:1043700073F88020ADF8000048208DF803006946EE
:104380002000FEF769F821002020FDF7F5FF6748BF
:10439000016851F020010160016851F020010160C5
:1043A000FF20ADF8000010208DF8030003208DF8E9
:1043B000020069465E48FEF74FF80320ADF80000A2
:1043C00018208DF8030003208DF8020069462000B4
:1043D000FEF742F87820ADF8000028208DF80300A1
:1043E00003208DF8020069462000FEF735F84D489D
:1043F000016851F00401016013BD78B585B0002655
:1044000000240020FEF7C6FC052801DB494D0DE025
:104410000020FEF7BFFC484980B251F8200000F0B0
:1044200051F90100454800F05BF905002800FEF74E
:1044300039FE434A434BFCF7C7FF00F0CFF90600B3
:104440006846FEF789FF4048016851F40061016049
:104450000398FDF7F1F83A4A3A4BFCF73FFE002289
:104460003A4BFDF76DF900F0EDF93949088030005D
:1044700000F006FA374908803748018851F00101F9
:10448000018036490A884FF6FE7002400A800121F9
:104490001920FFF7C1FE1920FFF7AEFE06B070BD70
:1044A00010B52F48016851F0010101605FF08044B0
:1044B0000420208000202B49088000202A49088001
:1044C0002A480068FDF7B8F8294A2A4BFCF706FE8F
:1044D00000F0B8F928490880012028490880002008
:1044E000274908802748018851F0010101800F21E8
:1044F0001C20FFF791FE1C20FFF77EFE01202249C1
:104500000880208850F00100208010BD00E100E00C
:1045100000E400E018ED00E000100240002002403E
:104520000410024004000140000C0140140C014042
:10453000000801406F128339D00200200000A04023
:104540002D431CEBE236FA3E181002400000F0BF8B
:10455000282C01402C2C01400C2C0140002C014047
:104560001C1002400400004024000040CC02002047
:104570007B14AE47E17A643F280000402C000040E5
:10458000100000400C0000401400004080B50020E6
:1045900043490870FFF746FB01BD02000120704748
:1045A00038B5414C2078002805D0022846D00CD3DD
:1045B00003286BD072E03D4A3D493A48FFF793FD2E
:1045C000012801D10120207068E03948394A01787A
:1045D000117011782C2908DA3449374B127853F8C6
:1045E00022209047354908700DE01178422907D103
:1045F0002E49314AD2F8B02090473049087002E085
:1046000001202E4908702D490878002803D02C4835
:104610000279521C02710220207022480078002882
:1046200003D01F480078002807D00878FF2802D15F
:104630000320207001E0002020702FE01F4D28781B
:10464000002815D02878FF2812D0184900200870BB
:104650001748184A127852F080020B78C2540A7830
:10466000521C0A702A780B78C2540878401C0870D3
:104670000E4A0F490B48FFF771FD2878FF2802D139
:104680000320207001E00020207007E04FF47A70D2
:10469000FEF7C4FC00202070FFF731FE31BD0000A2
:1046A000120900201309002011090020140900201C
:1046B0001006002015090020040000201609002023
:1046C000B408002000280AD0B0FA80F18840D1F167
:1046D0009D01C905020672F1004241EB10207047AE
:1046E00010B5FF2313EAD0541DBF13EAD1529C42E8
:1046F0009A4239E0A41ADA0780EA0103134042EA39
:10470000012142EA0020421A3CBF641E01EB420232
:10471000090AB2FBF1FE01FB1E221202B2FBF1F00C
:1047200001FB10226EF30F201202B2FBF1FE4EEAE3
:1047300000207F3406DDFE2C24DA53EA500050EBD3
:10474000C45010BDD4F1020401FB1E2240F0807160
:10475000192C1DDC21FA04F0C4F12004A1401143FE
:1047600071F10042584110BD9C421ABF03EAD15278
:104770009A420FE080EA010E0EF00043400004D0A0
:10478000490016D143F0FF4010BD490008BFD34394
:10479000180010BD9C4205D1D21AF7D001F000419B
:1047A000484010BD4A0212BF0846484000F0004091
:1047B00010BD4AB90902B1FA81F2914044B1A4187E
:1047C000C00140F000409EE7C90141F00041524263
:1047D0000002B0FA80F4A040141B94E701F00042FC
:1047E0008B1AA3F16051B1F5801F0ADBB1F17F6F25
:1047F0001FD242EAC102C10071F1004142EB507088
:1048000070470B15C3F10903212B10D2890241EA2D
:10481000905180020128494141F0004121FA03F002
:10482000C3F12003994071F10041504170471000DD
:1048300070476FF0000013EB103F5CBF000E42EAC0
:10484000C0507047C1F30A5340F2FE329B1A14DD88
:10485000D3F120034FEAE17208DDC90241EA505169
:1048600041F00040D84080185040704703F2E130DA
:1048700010B1D24382F00040704700207047000022
:1048800000180CD2010E7F3909D4D1F11F015DBF90
:10489000C00140F00040C8406FF0000070470020A9
:1048A0007047000077CC2B3277CCAB3259D900332C
:1048B00077CC2B3395BF563359D98033E852963392
:1048C00077CCAB330646C13395BFD63395BF56344C
:1048D000B00FA13495BFD634BD370635B00F2135A2
:1048E000A2E73B3595BF563587977135BD3786357D
:1048F000BD3706369C534936BD378636ACC5A7361C
:104900009C53C9368BE1EA36BD370637B5FE1637FC
:10491000ACC52737ACC5A73782A8FB37ACC527384D
:1049200017B7513882A87B38F7CC9238ACC5A73876
:1049300062BEBC3817B7D13817B7513952499D39C3
:1049400017B7D1396F12033A52491D3A3480373ABA
:1049500017B7513AFAED6B3A6F12833A6F12033B75
:10496000A69B443B6F12833B0AD7A33BA69BC43B49
:104970004260E53B6F12033CBC74133C0AD7233CF6
:104980000AD7A33C8FC2F53C0AD7233DCDCC4C3D82
:104990008FC2753D295C8F3D0AD7A33DEC51B83DD0
:1049A000CDCCCC3DCDCC4C3E9A99993ECDCCCC3E95
:1049B0000000003F9A99193F3333333FCDCC4C3F31
:1049C0006666663F0000803F0000004000004040F7
:1049D000000080400000A0400000C0400000E04017
:1049E0000000004100001041000020410000304163
:1049F0000000404100005041000060410000704153
:104A00000000804100008841000090410000984172
:104A10000000A0410000A8410000B0410000B841E2
:104A20000000C0410000C8410000D0410000D84152
:104A30000000E0410000E8410000F0410000F841C2
:104A400000000042000004420000084200000C4246
:104A500000001042000014420000184200001C42F6
:104A600000002042000024420000284200002C42A6
:104A700000003042000034420000384200003C4256
:104A800000004042000044420000484200004C4206
:104A900000005042000054420000584200005C42B6
:104AA00000006042000064420000684200006C4266
:104AB00000007042000074420000784200007C4216
:104AC00000008042000082420000844200008642D2
:104AD0000000884200008A4200008C4200008E42A2
:104AE0000000904200009242000094420000964272
:104AF0000000984200009A4200009C4200009E4242
:104B00000000A0420000A2420000A4420000A64211
:104B10000000A8420000AA420000AC420000AE42E1
:104B20000000B0420000B2420000B4420000B642B1
:104B30000000B8420000BA420000BC420000BE4281
:104B40000000C0420000C2420000C4420000C64251
:104B50000000C8420000CA420000CC420000CE4221
:104B60000000D0420000D2420000D4420000D642F1
:104B700080B53E49086850F0010008603C4A13685F
:104B80003C48034013600B683B4803400B600868D7
:104B900030F480200860106830F4FE0010605FF48C
:104BA0001F003649086000F005F85FF000603449E6
:104BB000086001BD80B500F001F801BD82B00020A1
:104BC0000190002000902949086850F48030086066
:104BD000086810F4003000900198401C0190009883
:104BE000002803D10198B0F5A06FF1D108688003C7
:104BF00002D50120009001E00020009000980128DB
:104C000031D12048026852F0100202600268920816
:104C100092000260026852F00202026014480268C8
:104C2000026002680260026852F4806202600268F8
:104C300032F47C120260026852F4E81202600A68E0
:104C400052F080720A600A689201FCD501688908F6
:104C500089000160016851F002010160016811F0F2
:104C60000C010829FAD102B0704700000010024080
:104C7000041002400000FFF8FFFFF6FE081002409B
:104C800008ED00E00020024080B51D49088810F0C2
:104C90000200088080B200281FD015480178134A0E
:104CA0001278914209D21049027831F81210124A52
:104CB00011800178491C01700FE010490A884FF6F5
:104CC0007F7002400A800B48017851F001010170A9
:104CD0000448016851F010010160FEF7B4F901BD0C
:104CE0000000000010080140A80800201A09002058
:104CF00019090020020300200C300140043001405B
:104D00000830014010480078000614D572B60F48EC
:104D10000178491C01700178032902D0072904D0C9
:104D200008E080200649086004E08021054A1160FF
:104D30000021017062B6002005490880704700001C
:104D40001408014010080140F00800200809002064
:104D50001004004010B5074979441831064C7C44D2
:104D6000163404E00A68081D114488470146A14230
:104D7000F8D110BD08000000240000001FC0FFFF94
:104D80002006000004030020000000007FBFFFFF9A
:104D90008401000048030000000000200120C046FC
:104DA000002801D0FFF7D6FFAFF300800020AFF35B
:104DB000008000F002F800F008F880B5FFF79FFAD5
:104DC000FEF741F9FFF7ECFBFAE700F001B800004D
:104DD00007463846FCF772FDFBE700002020202044
:104DE0002020202020202020202020200000000043
:104DF00000003377F0F033770F0F00000000000061
:104E00000148804701480047714B0008114E0008D7
:104E1000AFF30080AFF30080FFF7C0FF2020202019
:104E20002000000025312E3045000000252E306680
:104E30000000000000000000FFFF0000080001006B
:104E400070477047FFF7FEBFFFF7FEBFFFF7FEBFDB
:104E5000FFF7FEBFFFF7FEBFFFF7FEBFFFF7FEBF86
:104E6000FFF7FEBFFFF7FEBFFFF7FEBFFFF7FEBF76
:104E7000FFF7FEBFFFF7FEBFFFF7FEBFFFF7FEBF66
:104E8000FFF7FEBFFFF7FEBFFFF7FEBFFFF7FEBF56
:104E9000FFF7FEBFFFF7FEBFFFF7FEBFFFF7FEBF46
:104EA000FFF7FEBFFFF7FEBFFFF7FEBFFFF7FEBF36
:104EB000FFF7FEBFFFF7FEBFFFF7FEBFFFF7FEBF26
:104EC000FFF7FEBFFFF7FEBFFFF7FEBFFEF745BFD0
:104ED000FFF7FEBFFFF7FEBFFEF7FBB9FFF712BFFC
:104EE000FDF7FCB8FFF7FEBFFFF7FEBFFFF7A8BF57
:104EF000FFF7A7BFFFF7C8BEFFF7FEBFFEF79EBED6
:104F0000FFF7FEBFFFF7FEBFFFF7FEBFFFF7FEBFD5
:104F1000FFF7FEBF10170C0801409B45000807383B
:104F200000084B370008C535000887360008C31055
:104F3000F0040DF53400089B4504F0040521390008
:104F40000833351CF2127540F1230412BD7420069B
:104F500000C1814001C0804104610C2108E118A119
:104F60001CF10B30F10738F12760F11F70F1206060
:104F700010FEC0C101C30302C2C60607C705C5C4EF
:104F800004CC0C0DCD0FCFCE0E0ACACB0BC909082D
:104F9000C8D81819D91BDBDA1A1EDEDF1FDD1D1C6D
:104FA000DC14D4D515D71716D6D21213D311D1D0FD
:104FB00010F03031F133F3F23236F6F737F535349D
:104FC000F43CFCFD3DFF3F3EFEFA3A3BFB39F9F86D
:104FD0003828E8E929EB2B2AEAEE2E2FEF2DEDEC0D
:104FE0002CE42425E527E7E62622E2E323E121203D
:104FF000E0A06061A163A3A26266A6A767A565643D
:10500000A46CACAD6DAF6F6EAEAA6A6BAB69A9A8AC
:105010006878B8B979BB7B7ABABE7E7FBF7DBDBCEC
:105020007CB47475B577B7B67672B2B373B171707C
:10503000B0509091519353529296565797559594DC
:10504000549C5C5D9D5F9F9E5E5A9A9B5B995958EC
:1050500098884849894B8B8A4A4E8E8F4F8D4D4C8C
:105060008C448485458747468682424383418180BC
:1050700040000120020102030404101C0607080975
:105080000204060800A24A04B004000060090000FF
:10509000C01200008025000040382A124B041296EE
:1050A0001412DA081003C2010000F4042001E8031E
:0850B00000010002FFFF0101F5
:0400000508004E1190
:00000001FF
